:100000000C9457000C9474000C9474000C947400BD
:100010000C9474000C9474000C9474000C94740090
:100020000C9474000C9474000C9474000C94740080
:100030000C9474000C94F4020C94CB010C94740096
:100040000C9474000C9474000C949E010C94740035
:100050000C94C0010C9474000C9474000C94740003
:100060000C9474000C9474005602560256025C0202
:100070005C025C0264026402640279027902790221
:10008000084AD73B3BCE016E84BCBFFDC12F3D6CFF
:1000900074319ABD56833DDA3D00C77F11BED9E465
:1000A000BB4C3E916BAAAABE000000803F00112409
:1000B0001FBECFEFD4E0DEBFCDBF11E0A0E0B1E0C6
:1000C000EAECF3E102C005900D92A230B107D9F736
:1000D00022E0A2E0B1E001C01D92AA34B207E1F72C
:1000E0000E9405030C94E3090C94000065E780ED81
:1000F0000E9460018836D1F747E069E180ED0E94F7
:10010000410146E06AE180ED0E94410140E06BE17F
:1001100080ED0E94410140E06CE180ED0E944101D0
:1001200046E06DE180ED0E94410141E06BE680ED2B
:100130000C944101CF936BE380ED0E946001C82FC6
:100140006CE380ED0E9460012C2F30E0322F2227DB
:10015000A901482BCA01CF910895CF936DE380ED9B
:100160000E946001C82F6EE380ED0E9460012C2F79
:1001700030E0322F2227A901482BCA01CF910895E0
:10018000CF936FE380ED0E946001C82F60E480EDA3
:100190000E9460012C2F30E0322F2227A901482B2A
:1001A000CA01CF910895CF9363E480ED0E9460016E
:1001B000C82F64E480ED0E9460012C2F30E0322FC4
:1001C0002227A901482BCA01CF910895CF9365E456
:1001D00080ED0E946001C82F66E480ED0E946001FE
:1001E0002C2F30E0322F2227A901482BCA01CF91B2
:1001F0000895CF9367E480ED0E946001C82F68E402
:1002000080ED0E9460012C2F30E0322F2227A901BF
:10021000482BCA01CF9108951092B90088E98093C4
:10022000B800089584EA8093BC008091BC0087FFE9
:10023000FCCF8091B900887008958093BB0084E85A
:100240008093BC008091BC0087FFFCCF8091B900F7
:10025000887108958093BB0084E88093BC008091EE
:10026000BC0087FFFCCF8091B9008872089584E8B4
:100270008093BC008091BC0087FFFCCF8091BB00C5
:1002800008951F93CF93DF9300D0CDB7DEB7182F1B
:100290004A8369830E941201812F0E941D01698196
:1002A000862F0E942A014A81842F0E942A0184E914
:1002B0008093BC000F900F90DF91CF911F91089514
:1002C0001F93CF93DF931F92CDB7DEB7182F6983AB
:1002D0000E941201812F0E941D016981862F0E94B8
:1002E0002A010E94120181E0810F0E941D010E94DB
:1002F000370194E99093BC000F90DF91CF911F914B
:1003000008951092C50083E38093C400E1ECF0E00F
:10031000808188618083A2ECB0E08C9186608C93B0
:100320008081806C808308959091C00095FFFCCF00
:100330005C9A8093C60008950C9494011F920F92CA
:100340000FB60F9211248F93EF93FF9385B58460BE
:1003500085BD16BC80912101E091210181E08E0FC5
:1003600080932101F0E08091C600EC5DFE4F808318
:10037000FF91EF918F910F900FBE0F901F901895E6
:100380001F920F920FB60F9211245C980F900FBE20
:100390000F901F9018951F920F920FB60F92112475
:1003A0002F933F934F935F936F937F938F939F937D
:1003B000AF93BF93EF93FF93809121018823C1F006
:1003C00084E291E00E94A70590914702891310C032
:1003D0006091210184E291E00E946405892B41F043
:1003E00084E291E00E94B4058BB190E289278BB939
:1003F0001092210115BCFF91EF91BF91AF919F9198
:100400008F917F916F915F914F913F912F910F90BD
:100410000FBE0F901F9018958AB182638AB90E940F
:1004200081010E940C010E9476008DE787BD8091BA
:100430006E00826080936E0010928500109284009E
:1004400080916F00816080936F0083E080938100D2
:1004500086E090E00E94B209883F08F087EF809321
:10046000470282E090E00E94BA09909325028093AF
:10047000240284E090E00E94BA09909323018093C3
:10048000220180E090E00E94BA0990934902809393
:10049000480278940895039791F56C30710508F03F
:1004A0004EC0FB01EC5CFF4F0C940A07FB01EE0F02
:1004B000FF1FEB5EFE4F05C0FB01EE0FFF1FE75F66
:1004C000FE4F808191810895FB01EE0FFF1FEE0F1B
:1004D000FF1FE551FF4F20E030E048EC52E460811F
:1004E0007181828193810E944A090E945F08CB0139
:1004F0000895FB01EE0FFF1FE75FFE4FE2CF613073
:10050000710599F058F062307105A1F06330710502
:10051000B1F4809148029091490208956091470298
:1005200070E0962F88278C6C08958091220190911D
:10053000230108958091240290912502089580E07E
:1005400090E00895CF93DF931F92CDB7DEB7CB0134
:10055000BA0181309105F9F060F08230910511F116
:10056000039759F5409348027093490280E090E068
:100570001FC04C3C11F5909147027917F1F0783F7C
:10058000E0F4672F86E090E079830E94C0097981CA
:100590007093470212C0409322017093230184E0BC
:1005A00090E006C0409324027093250282E090E020
:1005B0000F90DF91CF910C94CE090F90DF91CF91E6
:1005C00008958130910561F46630710548F423B1D6
:1005D000AC0102C0440F551F6A95E2F7242301C005
:1005E00021E0822F089508951F920F920FB60F9267
:1005F00011248F93809102018F5F809302018F916C
:100600000F900FBE0F901F901895CF93DF9300D0DF
:1006100000D0CDB7DEB70E940C028BB190E28927E3
:100620008BB97BE1A72E71E0B72E212C312C412C08
:10063000512C32015394F0E29F2E00E011E0C12CC6
:10064000D12C760181E02816310439F092E0291688
:10065000310431F00E94D30005C00E94E60002C0C0
:100660000E94F900AA2797FDA095BA2FC80ED91E9F
:10067000EA1EFB1EEFECF7E03197F1F700C0000037
:100680000150110901151105E9F6C701B601A301D1
:1006900092010E94EB06F501219331935F018BB12A
:1006A00089258BB9FFEF2F1A3F0A83E02816310402
:1006B00021F600918400109185001092850010921F
:1006C00084006091020170E080E090E00E94920856
:1006D0002DEB37E346E85EE30E944A096B017C019B
:1006E000B80180E090E00E9490082DEB37E346E8E7
:1006F00056E30E944A099B01AC01C701B6010E9462
:1007000033076B017C01109202010E949A009093C2
:10071000100180930F010E94AD009093120180930D
:1007200011010E94C00090931401809313010E9454
:10073000D30090931601809315010E94E6009093D8
:100740001801809317010E94F9001C0190931A016F
:10075000809319010091480210914902C8018F70DD
:100760009927892B09F463C06091110170911201DE
:10077000882777FD8095982F0E9492089B01AC01F5
:1007800060910F0170911001882777FD8095982F57
:1007900029833A834B835C830E94920829813A81A2
:1007A0004B815C810E94A60726EB38E547EB50E4BD
:1007B0000E944A094B015C012DE233E24AEF5BE300
:1007C000C701B6010E944A092B013C0180911F011B
:1007D00090912001B101681B790B882777FD8095E6
:1007E000982F0E9492089B01AC01C301B2010E94A4
:1007F0004A0920910B0130910C0140910D0150915B
:100800000E010E94330726E636E646E65FE30E94C5
:100810004A099B01AC01C501B4010E9433076093F2
:100820000B0170930C0180930D0190930E01C80190
:1008300064E0969587956A95E1F78F709927892BE3
:1008400009F460C06091130170911401882777FD4D
:100850008095982F0E9492089B01AC0160910F0136
:1008600070911001882777FD8095982F29833A830E
:100870004B835C830E94920829813A814B815C8181
:100880000E94A60726EB38E547EB50E40E944A0990
:100890004B015C01609117017091180180911D015D
:1008A00090911E01681B790B882777FD8095982F02
:1008B0000E9492082DE233E24AEF5BE30E944A096C
:1008C000A70196010E944A09209107013091080171
:1008D0004091090150910A010E94330726E636E64D
:1008E00046E65FE30E944A099B01AC01C501B401E1
:1008F0000E943307609307017093080180930901F8
:1009000090930A01012F11270F701127012B09F471
:10091000D0CE6091110170911201882777FD8095EA
:10092000982F0E9492089B01AC0160911301709175
:100930001401882777FD8095982F29833A834B836C
:100940005C830E94920829813A814B815C810E94DC
:10095000A6074B015C016091150170911601809111
:100960001B0190911C01681B790B882777FD8095EE
:10097000982F0E9492082DE233E24AEF5BE30E9437
:100980004A09A70196010E944A092091030130916A
:10099000040140910501509106010E94330726E6AB
:1009A00036E646E65FE30E944A096B017C0126EBCE
:1009B00038E547EB50E4C501B4010E944A099B01A8
:1009C000AC01C701B6010E94330760930301709325
:1009D000040180930501909306016BCE682788E09F
:1009E00090E09B013695279560FF06C0B90141E074
:1009F000642740EA742701C0B9010197009789F77D
:100A0000CB010895CF93C82F60910001709101012F
:100A10000E94EE0490930101809300018C2FCF91EE
:100A20000C949C01CF93C82F892F0E9402058C2F14
:100A3000CF910C940205CF93DF931F92CDB7DEB711
:100A400099830E9402059981892F0F90DF91CF91A0
:100A50000C940205CF93DF931F92CDB7DEB72FEF33
:100A60003FEF3093010120930001EFE3FFE1319765
:100A7000F1F700C0000069830E9402056981862F9A
:100A80000F90DF91CF910C9402058091000190911D
:100A900001010E941B058FE39FE10197F1F700C060
:100AA00000000895CF93DF931F92CDB7DEB7605853
:100AB00049830E942A054981842F0E9402050F90D4
:100AC000DF91CF910C944505DF92EF92FF920F9347
:100AD0001F93CF93DF938C01643078F1D12C2FEFEB
:100AE0003FEFC62FD0E07E0182E0E81AF1088D2D9D
:100AF00090E08E159F0554F4F801E80FF91FB90135
:100B000080810E94EE049C01D394F1CFC00FD11FCD
:100B1000FE013297808190E0A901552748175907B7
:100B200061F4232F33272197488150E081E090E042
:100B30002417350721F080E002C080E090E0DF91CB
:100B4000CF911F910F91FF90EF90DF900895FC01DE
:100B500080810895FC01E60FF11D828190E0982FBD
:100B600088272381822B08952F923F925F926F9264
:100B70007F928F929F92AF92BF92CF92DF92EF922D
:100B8000FF920F931F93CF93DF931F92CDB7DEB7E2
:100B90005C01FC0190802181911014C00F90DF91C5
:100BA000CF911F910F91FF90EF90DF90CF90BF906A
:100BB000AF909F908F907F906F905F903F902F901D
:100BC0000C94F302233009F45DC040F4213099F015
:100BD000223009F0E9C001E010E00FC0263009F42E
:100BE0007EC0203109F4ABC0243009F0DDC0A3E0A1
:100BF000EA2EF12C4AC002E010E060E0C501298332
:100C00000E94AA056C0162E0C5010E94AA057C0150
:100C10005C01F7E0AF0EB11CF3E0B694A794FA952F
:100C2000E1F72981622F892D0E942A058A2D0E94D1
:100C30000205212C312C612C712CBB242A143B047D
:100C40000CF069C04301F8E08F0E911C512C6E141A
:100C50007F0488F4B3016C0D7D1DC8010E94E10280
:100C600091E0811101C090E0592A8FEF681A780A4B
:100C70006814790461F7852D0E940205EFEF2E1AA2
:100C80003E0ADCCFE4E0EE2EF12C60E0C5012983C2
:100C90000E94AA056C0162E0C5010E94AA058C01B0
:100CA00029818038910510F043E07FC0622F892DA3
:100CB0000E942A05802F880F0E940205A12CB12CCA
:100CC000A016B10641F1B5016C0D7D1DC7010E9452
:100CD0004B020E9412058FEFA81AB80AF1CF60E00C
:100CE0000E94AA058C0162E0C5010E94AA05AC0120
:100CF000B80184E090E00E94A20266E0892D0E9483
:100D00002A05C8010E941205B80184E090E00E9403
:100D10004B020E9412050F90DF91CF911F910F910E
:100D2000FF90EF90DF90CF90BF90AF909F908F900B
:100D30007F906F905F903F902F900C94450560E0FE
:100D40000E94AA057C0162E0C5010E94AA056C010F
:100D50009C01220F331FF501868190E02817390787
:100D600019F400E010E003C043E060E11FC00C157F
:100D70001D0589F0602F660F6B5FC5010E94AA05F3
:100D8000B8016E0D7F1DAC0184E090E00E94A202CC
:100D90000F5F1F4FECCF60E1892D0E942A05C7012C
:100DA0000E941205C801B5CF41E0622F892D0F9036
:100DB000DF91CF911F910F91FF90EF90DF90CF9037
:100DC000BF90AF909F908F907F906F905F903F907B
:100DD0002F900C945205052E97FB1EF400940E9450
:100DE000020757FD07D00E94100707FC03D04EF4FE
:100DF0000C94020750954095309521953F4F4F4FE9
:100E00005F4F089590958095709561957F4F8F4FB6
:100E10009F4F0895EE0FFF1F0590F491E02D099468
:100E2000A1E21A2EAA1BBB1BFD010DC0AA1FBB1FEE
:100E3000EE1FFF1FA217B307E407F50720F0A21B60
:100E4000B30BE40BF50B661F771F881F991F1A94CD
:100E500069F760957095809590959B01AC01BD01F7
:100E6000CF0108955058BB27AA270ED0D2C1C3D1B5
:100E700030F0C8D120F031F49F3F11F41EF493C13B
:100E80000EF4E095E7FB89C1E92FD4D180F3BA17BE
:100E9000620773078407950718F071F49EF5ECC19B
:100EA0000EF4E0950B2EBA2FA02D0B01B901900185
:100EB0000C01CA01A0011124FF27591B99F0593FC9
:100EC00050F4503E68F11A16F040A22F232F342F11
:100ED0004427585FF3CF469537952795A795F0405F
:100EE0005395C9F77EF41F16BA0B620B730B840B74
:100EF000BAF09150A1F0FF0FBB1F661F771F881F2C
:100F0000C2F70EC0BA0F621F731F841F48F4879583
:100F100077956795B795F7959E3F08F0B3CF939572
:100F2000880F08F09927EE0F97958795089563D15C
:100F300058F080E891E009F49EEF64D128F040E891
:100F400051E059F45EEF09C02EC196C1E92FE07857
:100F500071D168F3092E052AC1F326173707480710
:100F6000590738F00E2E07F8E02569F0E025E06417
:100F70000AC0EF6307F8009407FADB01B9019D018D
:100F8000DC01CA01AD01EF9341D043D10AD05F919A
:100F9000552331F02BED3FE049E450FD49EC63CFA0
:100FA0000895DF93DD27B92FBF7740E85FE316167A
:100FB000170648075B0710F4D92F65D19F938F93CD
:100FC0007F936F93CAD1E0E8F0E0F0D022D12F9167
:100FD0003F914F915F916AD1DD2349F09058A2EA89
:100FE0002AED3FE049EC5FE3D0785D274DDFDF91EC
:100FF00010C108D140F0FFD030F021F45F3F19F06C
:10100000CCC051113AC1CFC015D198F39923C9F37F
:101010005523B1F3951B550BBB27AA2762177307FE
:10102000840738F09F5F5F4F220F331F441FAA1FB2
:10103000A9F333D00E2E3AF0E0E830D09150504072
:10104000E695001CCAF729D0FE2F27D0660F771F20
:10105000881FBB1F261737074807AB07B0E809F002
:10106000BB0B802DBF01FF2793585F4F2AF09E3F97
:10107000510568F092C001C15F3FECF3983EDCF38C
:10108000869577956795B795F7959F5FC9F7880F10
:10109000911D9695879597F90895E1E0660F771F62
:1010A000881FBB1F621773078407BA0720F0621BF3
:1010B000730B840BBA0BEE1F88F7E095089504D0EC
:1010C0006894B111DAC00895BDD088F09F5790F0B0
:1010D000B92F9927B751A0F0D1F0660F771F881F5D
:1010E000991F1AF0BA95C9F712C0B13081F0C4D077
:1010F000B1E00895C1C0672F782F8827B85F39F015
:10110000B93FCCF3869577956795B395D9F73EF4BB
:1011100090958095709561957F4F8F4F9F4F089563
:10112000E89409C097FB3EF4909580957095619581
:101130007F4F8F4F9F4F9923A9F0F92F96E9BB2737
:101140009395F695879577956795B795F111F8CFB3
:10115000FAF4BB0F11F460FF1BC06F5F7F4F8F4F1E
:101160009F4F16C0882311F096E911C0772321F014
:101170009EE8872F762F05C0662371F096E8862FAC
:1011800070E060E02AF09A95660F771F881FDAF703
:10119000880F9695879597F9089597F99F6780E846
:1011A00070E060E008959FEF80EC0895DF93CF93A7
:1011B0001F930F93FF92EF92DF927B018C01689453
:1011C00005C0DA2EEF0172D0FE01E894A5912591B9
:1011D000359145915591AEF3EF0156DEFE01970131
:1011E000A801DA9479F7DF90EF90FF900F911F91AB
:1011F000CF91DF91089500240A9416161706180659
:101200000906089500240A9412161306140605060A
:101210000895092E0394000C11F4882352F0BB0F9B
:1012200040F4BF2B11F460FF04C06F5F7F4F8F4FFE
:101230009F4F089557FD9058440F551F59F05F3F39
:1012400071F04795880F97FB991F61F09F3F79F0E8
:1012500087950895121613061406551FF2CF46956A
:10126000F1DF08C0161617061806991FF1CF8695EC
:101270007105610508940895E894BB2766277727D0
:10128000CB0197F908959B01AC0160E070E080E824
:101290009FE366C00BD0BDCFAEDF28F0B3DF18F000
:1012A000952309F07ACF7FCF1124E7CFC3DFA0F3D6
:1012B000959FD1F3950F50E0551F629FF001729FEB
:1012C000BB27F00DB11D639FAA27F00DB11DAA1F0A
:1012D000649F6627B00DA11D661F829F2227B00D57
:1012E000A11D621F739FB00DA11D621F839FA00DE2
:1012F000611D221F749F3327A00D611D231F849F32
:10130000600D211D822F762F6A2F11249F57504088
:101310008AF0E1F088234AF0EE0FFF1FBB1F661F23
:10132000771F881F91505040A9F79E3F510570F0DC
:1013300034CFA3CF5F3FECF3983EDCF386957795EF
:101340006795B795F795E7959F5FC1F7FE2B880FD7
:10135000911D9695879597F908959B01AC019ACFB9
:1013600053DE57CFF999FECF92BD81BDF89A9927E8
:1013700080B50895A8E1B0E042E050E00C94D509B2
:10138000262FF999FECF1FBA92BD81BD20BD0FB6A1
:10139000F894FA9AF99A0FBE019608950E94C0092E
:1013A000272F0C94C109DC01CB01FC01F999FECF78
:1013B00006C0F2BDE1BDF89A319600B40D924150DD
:0A13C0005040B8F70895F894FFCFED
:0213CA00FFFF23
:00000001FF
