:101C00000C94340E0C94510E0C94510E0C94510EF5
:101C10000C94510E0C94510E0C94510E0C94510EC8
:101C20000C94510E0C94510E0C94510E0C94510EB8
:101C30000C94510E0C94510E0C949D0E0C94510E5C
:101C40000C94510E0C94510E0C94700E0C94510E79
:101C50000C94920E0C94510E0C94510E0C94510E47
:101C60000C94510E0C94510E11241FBECFEFD4E0F2
:101C7000DEBFCDBF11E0A0E0B1E0EEE1F2E202C0D4
:101C800005900D92A230B107D9F722E0A2E0B1E0B1
:101C900001C01D92A330B207E1F70E94EF0E0C9431
:101CA0000D110C94000E1092C50083E38093C400C4
:101CB000E1ECF0E0808188618083A2ECB0E08C915F
:101CC00086608C938081806C808308959091C000A1
:101CD00095FFFCCF5C9A8093C60008950C94660E25
:101CE0001F920F920FB60F9211248F93EF93FF93D1
:101CF00085B5846085BD16BC80910201E09102012A
:101D000081E08E0F80930201F0E08091C600ED5FCC
:101D1000FE4F8083FF91EF918F910F900FBE0F9038
:101D20001F9018951F920F920FB60F9211245C9876
:101D30000F900FBE0F901F9018951F920F920FB625
:101D40000F9211242F933F934F935F936F937F9341
:101D50008F939F93AF93BF93EF93FF938091020173
:101D60008823B1F083E091E00E94E60F813081F496
:101D70006091020183E091E00E94A30F892B41F062
:101D800083E091E00E94F30F8BB190E289278BB939
:101D90001092020115BCFF91EF91BF91AF919F91FD
:101DA0008F917F916F915F914F913F912F910F9004
:101DB0000FBE0F901F9018958AB182638AB90E9456
:101DC000530E8DE787BDEEE6F0E080818260808370
:101DD0007894089580E090E00895089508950E9411
:101DE000DC0EFFCF1F93CF93DF93CFB7F894F99911
:101DF000FECF23E0FC0120935700E89507B600FCD6
:101E0000FDCF20E030E0D1E0DB01A20FB31F1C9139
:101E1000F901E80FF91F11964C9150E0542F442717
:101E2000410F511D0A01D0935700E89511242E5FF0
:101E30003F4F2038310541F725E0FC012093570042
:101E4000E89507B600FCFDCF81E180935700E89547
:101E5000CFBFDF91CF911F910895682788E090E070
:101E60009B013695279560FF06C0B90141E06427C4
:101E700040EA742701C0B9010197009789F7CB01A7
:101E80000895CF93C82F60910001709101010E94C5
:101E90002D0F90930101809300018C2FCF910C9412
:101EA0006E0ECF93C82F892F0E94410F8C2FCF9198
:101EB0000C94410FCF93DF931F92CDB7DEB7998378
:101EC0000E94410F9981892F0F90DF91CF910C943F
:101ED000410FCF93DF931F92CDB7DEB72FEF3FEFC8
:101EE0003093010120930001EFE3FFE13197F1F717
:101EF00000C0000069830E94410F6981862F0F9006
:101F0000DF91CF910C94410F8091000190910101DC
:101F10000E945A0F8FE39FE10197F1F700C0000084
:101F20000895CF93DF931F92CDB7DEB760584983F2
:101F30000E94690F4981842F0E94410F0F90DF9109
:101F4000CF910C94840FDF92EF92FF920F931F9327
:101F5000CF93DF938C01643078F1D12C2FEF3FEFDA
:101F6000C62FD0E07E0182E0E81AF1088D2D90E0C6
:101F70008E159F0554F4F801E80FF91FB90180810F
:101F80000E942D0F9C01D394F1CFC00FD11FFE01F1
:101F90003297808190E0A90155274817590761F4CD
:101FA000232F33272197488150E081E090E02417C8
:101FB000350721F080E002C080E090E0DF91CF9112
:101FC0001F910F91FF90EF90DF900895FC018081A9
:101FD0000895FC01E60FF11D828190E0982F88277B
:101FE0002381822B08958F929F92AF92BF92CF92BE
:101FF000DF92EF92FF920F931F93CF93DF931F9285
:10200000CDB7DEB74C01FC01B0802181B1100FC00B
:102010000F90DF91CF911F910F91FF90EF90DF9084
:10202000CF90BF90AF909F908F900C94EE0E263083
:1020300009F43FC048F4233071F0243009F0DBC0CC
:1020400063E0E62EF12C0AC0203109F44DC02C3C8F
:1020500009F48FC0D0C054E0E52EF12C60E0C4013B
:1020600029830E94E90F6C0162E0C4010E94E90F1C
:102070008C0129818038910510F043E0BDC0622FAA
:102080008B2D0E94690F802F880F0E94410FA12C79
:10209000B12CA016B10609F45DC0B5016C0D7D1D13
:1020A000C7010E94EA0E0E94510FFFEFAF1ABF0A4C
:1020B000F0CF60E00E94E90F8C0162E0C4010E9451
:1020C000E90FAC01B80184E090E00E94ED0E66E0FB
:1020D0008B2D0E94690FC8010E94510FB80184E046
:1020E00090E00E94EA0E34C060E00E94E90F7C019B
:1020F00062E0C4010E94E90F6C019C01220F331FB2
:10210000F401868190E02817390719F400E010E007
:1021100003C043E060E171C00C151D0589F0602F1C
:10212000660F6B5FC4010E94E90FB8016E0D7F1D41
:10213000AC0184E090E00E94ED0E0F5F1F4FECCFEA
:1021400060E18B2D0E94690FC7010E94510FC801E9
:102150000E94510F0F90DF91CF911F910F91FF902F
:10216000EF90DF90CF90BF90AF909F908F900C94A6
:10217000840FFC0112816CEC8B2D0E94690F1111F0
:1021800027C080E890E00E94510FE0E0F0E089E095
:1021900080935700849190E00E94510FE3E0F0E0BB
:1021A00089E080935700849190E00E94510FE2E013
:1021B000F0E089E080935700849190E00E94510FF5
:1021C000E1E0F0E089E080935700849190E0C0CF97
:1021D000113009F0BFCF61E0C4010E94E90F8C010A
:1021E000B4016B5F7F4F0E94F20EC8010E94510F35
:1021F00080E890E0ADCF41E0622F8B2D0F90DF9112
:10220000CF911F910F91FF90EF90DF90CF90BF90F3
:0E221000AF909F908F900C94910FF894FFCF99
:02221E00FFFFC0
:0400000300001C00DD
:00000001FF
